:020000040000FA
:10000000F32F00308A000408840A82070034563433
:100010005634563420344434453420345634453430
:1000200033345734433443342F3442342034463449
:100030004E34313435345834493400342D342D3471
:100040002D342D342D3400342E342D342D342D34D4
:100050002D3400342E342E342D342D342D340034F0
:100060002E342E342E342D342D3400342E342E34B0
:100070002E342E342D3400342D342D342D342D34A3
:100080002E3400342D342E342E342D342E340034BE
:100090002D342D342D342E342E3400342D342D3483
:1000A0002E342E342E3400342D342E342E342E346F
:1000B0002E3400342E342E342E342E342E3400348C
:1000C0002D342E342D342D3400342D342D342E3453
:1000D0002D3400342D342E342E342D3400342E346F
:1000E0002D342D342E3400342D342E342D342E3432
:0C00F00000342E342D342E342E34003415
:100D080083120516080083120512080064279D2621
:100D18008B2E00287E088A007F0882008E2680009D
:100D2800840A04087D0603190034FF0A0319FE0A21
:100D3800922E46308312CB000030CC008D279030A5
:100D4800F6000130F700B52684268830F600133007
:100D5800F700B52687269030F6000130F700B52653
:100D68000800F901FA01C32E1430F800F80BBA2E66
:100D780000000130F9070318FA0A0030FA0777086B
:100D88007A02031DC92E76087902031CCC2ECD2EBB
:100D9800B82E08008312CA00C901E02E4708FC00DB
:100DA8004608FB0049084A07840001203B27013018
:100DB8008312C8004808C90749084A078400012067
:100DC800003A031DE82EE92ED22E0310460DF60038
:100DD800470DF700B5260800F401F501701CF52E43
:100DE800F62EFC2E7208F4070318F50A7308F507A7
:100DF80001300310F20DF30DFF3E031DFD2E0130EF
:100E08000310F10CF00CFF3E031D042F7008710451
:100E1800031D0F2F102FF22E7508F1007408F00033
:100E28000800613449346E3444343A343D3438343B
:100E38004F3445342534603473341B3439341A3410
:100E480069345F346F344A341C34653431345B346C
:100E580064345A34433418341E3424342A34303435
:100E680054344E3448344234363446340034FD0069
:100E780084262E307D06031D422F432F492F7C08E0
:100E8800F7007B08F600B5265D2F2D307D06031D83
:100E98004E2F4F2F5D2F7C08F1007B08F0000330A8
:100EA800F2000030F300F0267108F7007008F60031
:100EB800B52687267C08F7007B08F600B5260800CB
:100EC80083128C01831696018C01073081002F3024
:100ED800950021308F000430831290007B309200FF
:100EE800950180309F0083169F0117308312990067
:100EF8009A012130831699001430831298008501D5
:100F0800EF3083168500FA30F6000030F700B5267A
:100F180008008312CF01EC2F4F08013E8400012006
:100F2800CD004D08CE0041304E02031C9C2F9D2F52
:100F3800AE2F5B304E020318A22FA32FAE2F4C0802
:100F4800C7004B08C6004E08DF3E84008313000824
:100F5800CE26E72F30304E02031CB32FB42FC52FF7
:100F68003A304E020318B92FBA2FC52F4C08C700C4
:100F78004B08C6004E080A3E840083130008CE269C
:100F8800E72F2F304E06031DCA2FCB2FD22F4C0828
:100F9800C7004B08C6003C30CE26E72F20304E064F
:100FA800031DD72FD82FE72F4C08F1004B08F0006E
:100FB8000330F2000030F300F0267108F7007008E3
:100FC800F600B526E72F01308312CD004D08CF0774
:100FD80017304F02031CF12FF22F902F08008313B4
:100FE8004630FD000730FE001530FF002030840039
:080FF8009226CF0183018A2E2D
:02400E00D430AC
:00000001FF
